{
  "_format": "hh-sol-artifact-1",
  "contractName": "CrowdFunding",
  "sourceName": "contracts/CrowdFunding.sol",
  "abi": [
    {
      "inputs": [
        {
          "internalType": "uint256",
          "name": "",
          "type": "uint256"
        }
      ],
      "name": "campaigns",
      "outputs": [
        {
          "internalType": "address",
          "name": "owner",
          "type": "address"
        },
        {
          "internalType": "string",
          "name": "title",
          "type": "string"
        },
        {
          "internalType": "string",
          "name": "description",
          "type": "string"
        },
        {
          "internalType": "uint256",
          "name": "target",
          "type": "uint256"
        },
        {
          "internalType": "uint256",
          "name": "deadline",
          "type": "uint256"
        },
        {
          "internalType": "uint256",
          "name": "amountCollected",
          "type": "uint256"
        },
        {
          "internalType": "string",
          "name": "image",
          "type": "string"
        },
        {
          "internalType": "bool",
          "name": "isActive",
          "type": "bool"
        },
        {
          "internalType": "bool",
          "name": "isCompleted",
          "type": "bool"
        },
        {
          "internalType": "bool",
          "name": "isExpired",
          "type": "bool"
        }
      ],
      "stateMutability": "view",
      "type": "function"
    },
    {
      "inputs": [
        {
          "internalType": "uint256",
          "name": "_id",
          "type": "uint256"
        }
      ],
      "name": "closeCampaign",
      "outputs": [],
      "stateMutability": "nonpayable",
      "type": "function"
    },
    {
      "inputs": [
        {
          "internalType": "address",
          "name": "_owner",
          "type": "address"
        },
        {
          "internalType": "string",
          "name": "_title",
          "type": "string"
        },
        {
          "internalType": "string",
          "name": "_description",
          "type": "string"
        },
        {
          "internalType": "uint256",
          "name": "_target",
          "type": "uint256"
        },
        {
          "internalType": "uint256",
          "name": "_deadline",
          "type": "uint256"
        },
        {
          "internalType": "string",
          "name": "_image",
          "type": "string"
        }
      ],
      "name": "createCampaign",
      "outputs": [
        {
          "internalType": "uint256",
          "name": "",
          "type": "uint256"
        }
      ],
      "stateMutability": "nonpayable",
      "type": "function"
    },
    {
      "inputs": [
        {
          "internalType": "uint256",
          "name": "_id",
          "type": "uint256"
        }
      ],
      "name": "donateToCampaign",
      "outputs": [],
      "stateMutability": "payable",
      "type": "function"
    },
    {
      "inputs": [],
      "name": "getCampaigns",
      "outputs": [
        {
          "components": [
            {
              "internalType": "address",
              "name": "owner",
              "type": "address"
            },
            {
              "internalType": "string",
              "name": "title",
              "type": "string"
            },
            {
              "internalType": "string",
              "name": "description",
              "type": "string"
            },
            {
              "internalType": "uint256",
              "name": "target",
              "type": "uint256"
            },
            {
              "internalType": "uint256",
              "name": "deadline",
              "type": "uint256"
            },
            {
              "internalType": "uint256",
              "name": "amountCollected",
              "type": "uint256"
            },
            {
              "internalType": "string",
              "name": "image",
              "type": "string"
            },
            {
              "internalType": "address[]",
              "name": "donators",
              "type": "address[]"
            },
            {
              "internalType": "uint256[]",
              "name": "donations",
              "type": "uint256[]"
            },
            {
              "internalType": "bool",
              "name": "isActive",
              "type": "bool"
            },
            {
              "internalType": "bool",
              "name": "isCompleted",
              "type": "bool"
            },
            {
              "internalType": "bool",
              "name": "isExpired",
              "type": "bool"
            }
          ],
          "internalType": "struct CrowdFunding.Campaign[]",
          "name": "",
          "type": "tuple[]"
        }
      ],
      "stateMutability": "view",
      "type": "function"
    },
    {
      "inputs": [
        {
          "internalType": "uint256",
          "name": "_id",
          "type": "uint256"
        }
      ],
      "name": "getDonators",
      "outputs": [
        {
          "internalType": "address[]",
          "name": "",
          "type": "address[]"
        },
        {
          "internalType": "uint256[]",
          "name": "",
          "type": "uint256[]"
        }
      ],
      "stateMutability": "view",
      "type": "function"
    },
    {
      "inputs": [],
      "name": "numberOfCampaigns",
      "outputs": [
        {
          "internalType": "uint256",
          "name": "",
          "type": "uint256"
        }
      ],
      "stateMutability": "view",
      "type": "function"
    },
    {
      "inputs": [
        {
          "internalType": "uint256",
          "name": "_id",
          "type": "uint256"
        }
      ],
      "name": "refundToDonators",
      "outputs": [],
      "stateMutability": "nonpayable",
      "type": "function"
    }
  ],
  "bytecode": "0x6080604052600060015534801561001557600080fd5b506120fd806100256000396000f3fe60806040526004361061007b5760003560e01c806390c73c3f1161004e57806390c73c3f1461014b5780639943e3a114610174578063a6b03633146101b1578063b0e1c1e1146101dc5761007b565b806307ca140d146100805780630fa91fa9146100ab578063141961bc146100e957806342a4fda81461012f575b600080fd5b34801561008c57600080fd5b50610095610205565b6040516100a291906111df565b60405180910390f35b3480156100b757600080fd5b506100d260048036038101906100cd919061123a565b61020b565b6040516100e0929190611415565b60405180910390f35b3480156100f557600080fd5b50610110600480360381019061010b919061123a565b61031b565b6040516101269a9998979695949392919061150f565b60405180910390f35b6101496004803603810190610144919061123a565b61054e565b005b34801561015757600080fd5b50610172600480360381019061016d919061123a565b6107d9565b005b34801561018057600080fd5b5061019b60048036038101906101969190611721565b6109ca565b6040516101a891906111df565b60405180910390f35b3480156101bd57600080fd5b506101c6610b5a565b6040516101d39190611b1b565b60405180910390f35b3480156101e857600080fd5b5061020360048036038101906101fe919061123a565b610f81565b005b60015481565b606080600080848152602001908152602001600020600701600080858152602001908152602001600020600801818054806020026020016040519081016040528092919081815260200182805480156102b957602002820191906000526020600020905b8160009054906101000a900473ffffffffffffffffffffffffffffffffffffffff1673ffffffffffffffffffffffffffffffffffffffff168152602001906001019080831161026f575b505050505091508080548060200260200160405190810160405280929190818152602001828054801561030b57602002820191906000526020600020905b8154815260200190600101908083116102f7575b5050505050905091509150915091565b60006020528060005260406000206000915090508060000160009054906101000a900473ffffffffffffffffffffffffffffffffffffffff169080600101805461036490611b6c565b80601f016020809104026020016040519081016040528092919081815260200182805461039090611b6c565b80156103dd5780601f106103b2576101008083540402835291602001916103dd565b820191906000526020600020905b8154815290600101906020018083116103c057829003601f168201915b5050505050908060020180546103f290611b6c565b80601f016020809104026020016040519081016040528092919081815260200182805461041e90611b6c565b801561046b5780601f106104405761010080835404028352916020019161046b565b820191906000526020600020905b81548152906001019060200180831161044e57829003601f168201915b50505050509080600301549080600401549080600501549080600601805461049290611b6c565b80601f01602080910402602001604051908101604052809291908181526020018280546104be90611b6c565b801561050b5780601f106104e05761010080835404028352916020019161050b565b820191906000526020600020905b8154815290600101906020018083116104ee57829003601f168201915b5050505050908060090160009054906101000a900460ff16908060090160019054906101000a900460ff16908060090160029054906101000a900460ff1690508a565b60008082815260200190815260200160002060090160009054906101000a900460ff166105b0576040517f08c379a00000000000000000000000000000000000000000000000000000000081526004016105a790611bea565b60405180910390fd5b60008082815260200190815260200160002060090160019054906101000a900460ff1615610613576040517f08c379a000000000000000000000000000000000000000000000000000000000815260040161060a90611c7c565b60405180910390fd5b60008082815260200190815260200160002060090160029054906101000a900460ff1615610676576040517f08c379a000000000000000000000000000000000000000000000000000000000815260040161066d90611ce8565b60405180910390fd5b60003490506000806000848152602001908152602001600020905080600701339080600181540180825580915050600190039060005260206000200160009091909190916101000a81548173ffffffffffffffffffffffffffffffffffffffff021916908373ffffffffffffffffffffffffffffffffffffffff1602179055508060080182908060018154018082558091505060019003906000526020600020016000909190919091505560008160000160009054906101000a900473ffffffffffffffffffffffffffffffffffffffff1673ffffffffffffffffffffffffffffffffffffffff168360405161076b90611d39565b60006040518083038185875af1925050503d80600081146107a8576040519150601f19603f3d011682016040523d82523d6000602084013e6107ad565b606091505b5050905080156107d357828260050160008282546107cb9190611d7d565b925050819055505b50505050565b600080600083815260200190815260200160002090508060090160019054906101000a900460ff1615801561081c57508060090160029054906101000a900460ff165b801561083757508060090160009054906101000a900460ff16155b610876576040517f08c379a000000000000000000000000000000000000000000000000000000000815260040161086d90611e6b565b60405180910390fd5b60005b81600701805490508110156109a85760008260070182815481106108a05761089f611e8b565b5b9060005260206000200160009054906101000a900473ffffffffffffffffffffffffffffffffffffffff1673ffffffffffffffffffffffffffffffffffffffff168360080183815481106108f7576108f6611e8b565b5b906000526020600020015460405161090e90611d39565b60006040518083038185875af1925050503d806000811461094b576040519150601f19603f3d011682016040523d82523d6000602084013e610950565b606091505b5050905080610994576040517f08c379a000000000000000000000000000000000000000000000000000000000815260040161098b90611f06565b60405180910390fd5b5080806109a090611f26565b915050610879565b5060018160090160016101000a81548160ff0219169083151502179055505050565b6000428311610a0e576040517f08c379a0000000000000000000000000000000000000000000000000000000008152600401610a0590611fe1565b60405180910390fd5b600080600060015481526020019081526020016000209050878160000160006101000a81548173ffffffffffffffffffffffffffffffffffffffff021916908373ffffffffffffffffffffffffffffffffffffffff16021790555086816001019080519060200190610a819291906110a6565b5085816002019080519060200190610a9a9291906110a6565b508481600301819055508381600401819055506000816005018190555082816006019080519060200190610acf9291906110a6565b5060018160090160006101000a81548160ff02191690831515021790555060008160090160016101000a81548160ff02191690831515021790555060008160090160026101000a81548160ff02191690831515021790555060016000815480929190610b3a90611f26565b919050555060018054610b4d9190612001565b9150509695505050505050565b6060600060015467ffffffffffffffff811115610b7a57610b796115f6565b5b604051908082528060200260200182016040528015610bb357816020015b610ba061112c565b815260200190600190039081610b985790505b50905060005b600154811015610f79576000806000838152602001908152602001600020905080604051806101800160405290816000820160009054906101000a900473ffffffffffffffffffffffffffffffffffffffff1673ffffffffffffffffffffffffffffffffffffffff1673ffffffffffffffffffffffffffffffffffffffff168152602001600182018054610c4c90611b6c565b80601f0160208091040260200160405190810160405280929190818152602001828054610c7890611b6c565b8015610cc55780601f10610c9a57610100808354040283529160200191610cc5565b820191906000526020600020905b815481529060010190602001808311610ca857829003601f168201915b50505050508152602001600282018054610cde90611b6c565b80601f0160208091040260200160405190810160405280929190818152602001828054610d0a90611b6c565b8015610d575780601f10610d2c57610100808354040283529160200191610d57565b820191906000526020600020905b815481529060010190602001808311610d3a57829003601f168201915b50505050508152602001600382015481526020016004820154815260200160058201548152602001600682018054610d8e90611b6c565b80601f0160208091040260200160405190810160405280929190818152602001828054610dba90611b6c565b8015610e075780601f10610ddc57610100808354040283529160200191610e07565b820191906000526020600020905b815481529060010190602001808311610dea57829003601f168201915b5050505050815260200160078201805480602002602001604051908101604052809291908181526020018280548015610e9557602002820191906000526020600020905b8160009054906101000a900473ffffffffffffffffffffffffffffffffffffffff1673ffffffffffffffffffffffffffffffffffffffff1681526020019060010190808311610e4b575b5050505050815260200160088201805480602002602001604051908101604052809291908181526020018280548015610eed57602002820191906000526020600020905b815481526020019060010190808311610ed9575b505050505081526020016009820160009054906101000a900460ff161515151581526020016009820160019054906101000a900460ff161515151581526020016009820160029054906101000a900460ff161515151581525050838381518110610f5a57610f59611e8b565b5b6020026020010181905250508080610f7190611f26565b915050610bb9565b508091505090565b600080600083815260200190815260200160002090503373ffffffffffffffffffffffffffffffffffffffff168160000160009054906101000a900473ffffffffffffffffffffffffffffffffffffffff1673ffffffffffffffffffffffffffffffffffffffff1614611029576040517f08c379a0000000000000000000000000000000000000000000000000000000008152600401611020906120a7565b60405180910390fd5b806003015481600501541061105a5760018160090160016101000a81548160ff021916908315150217905550611085565b42816004015410156110845760018160090160026101000a81548160ff0219169083151502179055505b5b60008160090160006101000a81548160ff0219169083151502179055505050565b8280546110b290611b6c565b90600052602060002090601f0160209004810192826110d4576000855561111b565b82601f106110ed57805160ff191683800117855561111b565b8280016001018555821561111b579182015b8281111561111a5782518255916020019190600101906110ff565b5b50905061112891906111a9565b5090565b604051806101800160405280600073ffffffffffffffffffffffffffffffffffffffff16815260200160608152602001606081526020016000815260200160008152602001600081526020016060815260200160608152602001606081526020016000151581526020016000151581526020016000151581525090565b5b808211156111c25760008160009055506001016111aa565b5090565b6000819050919050565b6111d9816111c6565b82525050565b60006020820190506111f460008301846111d0565b92915050565b6000604051905090565b600080fd5b600080fd5b611217816111c6565b811461122257600080fd5b50565b6000813590506112348161120e565b92915050565b6000602082840312156112505761124f611204565b5b600061125e84828501611225565b91505092915050565b600081519050919050565b600082825260208201905092915050565b6000819050602082019050919050565b600073ffffffffffffffffffffffffffffffffffffffff82169050919050565b60006112be82611293565b9050919050565b6112ce816112b3565b82525050565b60006112e083836112c5565b60208301905092915050565b6000602082019050919050565b600061130482611267565b61130e8185611272565b935061131983611283565b8060005b8381101561134a57815161133188826112d4565b975061133c836112ec565b92505060018101905061131d565b5085935050505092915050565b600081519050919050565b600082825260208201905092915050565b6000819050602082019050919050565b61138c816111c6565b82525050565b600061139e8383611383565b60208301905092915050565b6000602082019050919050565b60006113c282611357565b6113cc8185611362565b93506113d783611373565b8060005b838110156114085781516113ef8882611392565b97506113fa836113aa565b9250506001810190506113db565b5085935050505092915050565b6000604082019050818103600083015261142f81856112f9565b9050818103602083015261144381846113b7565b90509392505050565b611455816112b3565b82525050565b600081519050919050565b600082825260208201905092915050565b60005b8381101561149557808201518184015260208101905061147a565b838111156114a4576000848401525b50505050565b6000601f19601f8301169050919050565b60006114c68261145b565b6114d08185611466565b93506114e0818560208601611477565b6114e9816114aa565b840191505092915050565b60008115159050919050565b611509816114f4565b82525050565b600061014082019050611525600083018d61144c565b8181036020830152611537818c6114bb565b9050818103604083015261154b818b6114bb565b905061155a606083018a6111d0565b61156760808301896111d0565b61157460a08301886111d0565b81810360c083015261158681876114bb565b905061159560e0830186611500565b6115a3610100830185611500565b6115b1610120830184611500565b9b9a5050505050505050505050565b6115c9816112b3565b81146115d457600080fd5b50565b6000813590506115e6816115c0565b92915050565b600080fd5b600080fd5b7f4e487b7100000000000000000000000000000000000000000000000000000000600052604160045260246000fd5b61162e826114aa565b810181811067ffffffffffffffff8211171561164d5761164c6115f6565b5b80604052505050565b60006116606111fa565b905061166c8282611625565b919050565b600067ffffffffffffffff82111561168c5761168b6115f6565b5b611695826114aa565b9050602081019050919050565b82818337600083830152505050565b60006116c46116bf84611671565b611656565b9050828152602081018484840111156116e0576116df6115f1565b5b6116eb8482856116a2565b509392505050565b600082601f830112611708576117076115ec565b5b81356117188482602086016116b1565b91505092915050565b60008060008060008060c0878903121561173e5761173d611204565b5b600061174c89828a016115d7565b965050602087013567ffffffffffffffff81111561176d5761176c611209565b5b61177989828a016116f3565b955050604087013567ffffffffffffffff81111561179a57611799611209565b5b6117a689828a016116f3565b94505060606117b789828a01611225565b93505060806117c889828a01611225565b92505060a087013567ffffffffffffffff8111156117e9576117e8611209565b5b6117f589828a016116f3565b9150509295509295509295565b600081519050919050565b600082825260208201905092915050565b6000819050602082019050919050565b600082825260208201905092915050565b600061184a8261145b565b611854818561182e565b9350611864818560208601611477565b61186d816114aa565b840191505092915050565b600082825260208201905092915050565b600061189482611267565b61189e8185611878565b93506118a983611283565b8060005b838110156118da5781516118c188826112d4565b97506118cc836112ec565b9250506001810190506118ad565b5085935050505092915050565b600082825260208201905092915050565b600061190382611357565b61190d81856118e7565b935061191883611373565b8060005b838110156119495781516119308882611392565b975061193b836113aa565b92505060018101905061191c565b5085935050505092915050565b61195f816114f4565b82525050565b60006101808301600083015161197e60008601826112c5565b5060208301518482036020860152611996828261183f565b915050604083015184820360408601526119b0828261183f565b91505060608301516119c56060860182611383565b5060808301516119d86080860182611383565b5060a08301516119eb60a0860182611383565b5060c083015184820360c0860152611a03828261183f565b91505060e083015184820360e0860152611a1d8282611889565b915050610100830151848203610100860152611a3982826118f8565b915050610120830151611a50610120860182611956565b50610140830151611a65610140860182611956565b50610160830151611a7a610160860182611956565b508091505092915050565b6000611a918383611965565b905092915050565b6000602082019050919050565b6000611ab182611802565b611abb818561180d565b935083602082028501611acd8561181e565b8060005b85811015611b095784840389528151611aea8582611a85565b9450611af583611a99565b925060208a01995050600181019050611ad1565b50829750879550505050505092915050565b60006020820190508181036000830152611b358184611aa6565b905092915050565b7f4e487b7100000000000000000000000000000000000000000000000000000000600052602260045260246000fd5b60006002820490506001821680611b8457607f821691505b60208210811415611b9857611b97611b3d565b5b50919050565b7f43616d706169676e206973206e6f74206163746976652e000000000000000000600082015250565b6000611bd4601783611466565b9150611bdf82611b9e565b602082019050919050565b60006020820190508181036000830152611c0381611bc7565b9050919050565b7f43616d706169676e2068617320616c7265616479206265656e20636f6d706c6560008201527f7465642e00000000000000000000000000000000000000000000000000000000602082015250565b6000611c66602483611466565b9150611c7182611c0a565b604082019050919050565b60006020820190508181036000830152611c9581611c59565b9050919050565b7f43616d706169676e2068617320657870697265642e0000000000000000000000600082015250565b6000611cd2601583611466565b9150611cdd82611c9c565b602082019050919050565b60006020820190508181036000830152611d0181611cc5565b9050919050565b600081905092915050565b50565b6000611d23600083611d08565b9150611d2e82611d13565b600082019050919050565b6000611d4482611d16565b9150819050919050565b7f4e487b7100000000000000000000000000000000000000000000000000000000600052601160045260246000fd5b6000611d88826111c6565b9150611d93836111c6565b9250827fffffffffffffffffffffffffffffffffffffffffffffffffffffffffffffffff03821115611dc857611dc7611d4e565b5b828201905092915050565b7f43616d706169676e206d75737420626520636c6f7365642c206578706972656460008201527f2c20616e6420696e636f6d706c65746520746f20697373756520726566756e6460208201527f732e000000000000000000000000000000000000000000000000000000000000604082015250565b6000611e55604283611466565b9150611e6082611dd3565b606082019050919050565b60006020820190508181036000830152611e8481611e48565b9050919050565b7f4e487b7100000000000000000000000000000000000000000000000000000000600052603260045260246000fd5b7f4661696c656420746f20726566756e6420746f20646f6e61746f722e00000000600082015250565b6000611ef0601c83611466565b9150611efb82611eba565b602082019050919050565b60006020820190508181036000830152611f1f81611ee3565b9050919050565b6000611f31826111c6565b91507fffffffffffffffffffffffffffffffffffffffffffffffffffffffffffffffff821415611f6457611f63611d4e565b5b600182019050919050565b7f54686520646561646c696e652073686f756c642062652061206461746520696e60008201527f20746865206675747572652e0000000000000000000000000000000000000000602082015250565b6000611fcb602c83611466565b9150611fd682611f6f565b604082019050919050565b60006020820190508181036000830152611ffa81611fbe565b9050919050565b600061200c826111c6565b9150612017836111c6565b92508282101561202a57612029611d4e565b5b828203905092915050565b7f4f6e6c79207468652063616d706169676e206f776e65722063616e20636c6f7360008201527f65207468652063616d706169676e2e0000000000000000000000000000000000602082015250565b6000612091602f83611466565b915061209c82612035565b604082019050919050565b600060208201905081810360008301526120c081612084565b905091905056fea264697066735822122099b4398d7d4e96057fde2e3498ac597c446ef7dad671bae9b6f56dd9674e9b3764736f6c634300080a0033",
  "linkReferences": {},
  "deployedLinkReferences": {}
}